{
  "contractName": "GravatarRegistry",
  "abi": [
    {
      "constant": true,
      "inputs": [
        {
          "name": "",
          "type": "uint256"
        }
      ],
      "name": "gravatars",
      "outputs": [
        {
          "name": "owner",
          "type": "address"
        },
        {
          "name": "receiver",
          "type": "address"
        },
        {
          "name": "money",
          "type": "uint256"
        }
      ],
      "payable": false,
      "stateMutability": "view",
      "type": "function"
    },
    {
      "anonymous": false,
      "inputs": [
        {
          "indexed": false,
          "name": "id",
          "type": "uint256"
        },
        {
          "indexed": false,
          "name": "owner",
          "type": "address"
        },
        {
          "indexed": false,
          "name": "receiver",
          "type": "address"
        },
        {
          "indexed": false,
          "name": "money",
          "type": "uint256"
        }
      ],
      "name": "NewGravatar",
      "type": "event"
    },
    {
      "constant": false,
      "inputs": [
        {
          "name": "_owner",
          "type": "address"
        },
        {
          "name": "_receiver",
          "type": "address"
        },
        {
          "name": "_money",
          "type": "uint256"
        }
      ],
      "name": "createGravatar",
      "outputs": [],
      "payable": false,
      "stateMutability": "nonpayable",
      "type": "function"
    }
  ],
  "bytecode": "0x608060405234801561001057600080fd5b506103cd806100206000396000f30060806040526004361061004c576000357c0100000000000000000000000000000000000000000000000000000000900463ffffffff168063d5ce24ed14610051578063daf20ba1146100f8575b600080fd5b34801561005d57600080fd5b5061007c60048036038101908080359060200190929190505050610165565b604051808473ffffffffffffffffffffffffffffffffffffffff1673ffffffffffffffffffffffffffffffffffffffff1681526020018373ffffffffffffffffffffffffffffffffffffffff1673ffffffffffffffffffffffffffffffffffffffff168152602001828152602001935050505060405180910390f35b34801561010457600080fd5b50610163600480360381019080803573ffffffffffffffffffffffffffffffffffffffff169060200190929190803573ffffffffffffffffffffffffffffffffffffffff169060200190929190803590602001909291905050506101de565b005b60008181548110151561017457fe5b90600052602060002090600302016000915090508060000160009054906101000a900473ffffffffffffffffffffffffffffffffffffffff16908060010160009054906101000a900473ffffffffffffffffffffffffffffffffffffffff16908060020154905083565b6000600160006060604051908101604052808773ffffffffffffffffffffffffffffffffffffffff1681526020018673ffffffffffffffffffffffffffffffffffffffff168152602001858152509080600181540180825580915050906001820390600052602060002090600302016000909192909190915060008201518160000160006101000a81548173ffffffffffffffffffffffffffffffffffffffff021916908373ffffffffffffffffffffffffffffffffffffffff16021790555060208201518160010160006101000a81548173ffffffffffffffffffffffffffffffffffffffff021916908373ffffffffffffffffffffffffffffffffffffffff1602179055506040820151816002015550500390507f1656cb04a5c35b93286af9da5c673009993d80b340463444f4e2828c763e855181858585604051808581526020018473ffffffffffffffffffffffffffffffffffffffff1673ffffffffffffffffffffffffffffffffffffffff1681526020018373ffffffffffffffffffffffffffffffffffffffff1673ffffffffffffffffffffffffffffffffffffffff16815260200182815260200194505050505060405180910390a1505050505600a165627a7a72305820d50c1103069735ce6787f8551567ab4321e919a887baec074842cd0d74574d7e0029",
  "source": "pragma solidity ^0.4.0;\n\ncontract GravatarRegistry {\n    event NewGravatar(uint256 id, address owner, address receiver, uint256 money);\n  // event NewGravatar(uint id, address owner, string displayName, string imageUrl);\n  // event UpdatedGravatar(uint id, address owner, string displayName, string imageUrl);\n\n  struct Gravatar {\n    address owner;\n\n    address receiver;\n\n    uint256 money;\n    // string displayName;\n    // string imageUrl;\n  }\n\n  Gravatar[] public gravatars;\n\n  // mapping (uint => address) public gravatarToOwner;\n  // mapping (address => uint) public ownerToGravatar;\n\n  function createGravatar(address _owner, address _receiver,uint256 _money) public {\n    // require(ownerToGravatar[msg.sender] == 0);\n    uint _id = gravatars.push(Gravatar(_owner, _receiver, _money))-1;\n    // gravatarToOwner[id] = msg.sender;\n    // ownerToGravatar[msg.sender] = id;\n\n    emit NewGravatar(_id,_owner,_receiver,_money);\n  }\n\n  // function getGravatar(address owner) public view returns (string, string) {\n  //   uint id = ownerToGravatar[owner];\n  //   return (gravatars[id].displayName, gravatars[id].imageUrl);\n  // }\n\n  // function updateGravatarName(string _displayName) public {\n  //   require(ownerToGravatar[msg.sender] != 0);\n  //   require(msg.sender == gravatars[ownerToGravatar[msg.sender]].owner);\n\n  //   uint id = ownerToGravatar[msg.sender];\n\n  //   gravatars[id].displayName = _displayName;\n  //   emit UpdatedGravatar(id, msg.sender, _displayName, gravatars[id].imageUrl);\n  // }\n\n  // function updateGravatarImage(string _imageUrl) public {\n  //   require(ownerToGravatar[msg.sender] != 0);\n  //   require(msg.sender == gravatars[ownerToGravatar[msg.sender]].owner);\n\n  //   uint id = ownerToGravatar[msg.sender];\n\n  //   gravatars[id].imageUrl =  _imageUrl;\n  //   emit UpdatedGravatar(id, msg.sender, gravatars[id].displayName, _imageUrl);\n  // }\n\n  // // the gravatar at position 0 of gravatars[]\n  // // is fake\n  // // it's a mythical gravatar\n  // // that doesn't really exist\n  // // dani will invoke this function once when this contract is deployed\n  // // but then no more\n  // function setMythicalGravatar() public {\n  //   require(msg.sender == 0x8d3e809Fbd258083a5Ba004a527159Da535c8abA);\n  //   gravatars.push(Gravatar(0x0, \" \", \" \"));\n  // }\n}\n",
  "sourcePath": "/home/dase/JavascriptProjects/transfer/contracts/Gravity.sol",
  "compiler": {
    "name": "solc",
    "version": "0.4.25+commit.59dbf8f1.Emscripten.clang"
  },
  "schemaVersion": "3.4.8",
  "updatedAt": "2022-07-29T11:58:28.743Z",
  "networkType": "ethereum",
  "devdoc": {
    "methods": {}
  },
  "userdoc": {
    "methods": {}
  }
}